{
  "abi": [
    {
      "inputs": [
        {
          "components": [
            {
              "internalType": "address",
              "name": "addr",
              "type": "address"
            },
            {
              "internalType": "uint256",
              "name": "percentage",
              "type": "uint256"
            }
          ],
          "internalType": "struct CryptoIndex.Token[]",
          "name": "_tokens",
          "type": "tuple[]"
        },
        {
          "internalType": "address",
          "name": "_quoteToken",
          "type": "address"
        },
        {
          "internalType": "uint256",
          "name": "_amount",
          "type": "uint256"
        },
        {
          "internalType": "uint24",
          "name": "_fee",
          "type": "uint24"
        },
        {
          "internalType": "address",
          "name": "_swapRouter",
          "type": "address"
        }
      ],
      "stateMutability": "nonpayable",
      "type": "constructor"
    },
    {
      "inputs": [
        {
          "internalType": "uint256",
          "name": "_amount",
          "type": "uint256"
        },
        {
          "internalType": "uint24",
          "name": "_poolFee",
          "type": "uint24"
        }
      ],
      "name": "buyTokens",
      "outputs": [],
      "stateMutability": "nonpayable",
      "type": "function"
    },
    {
      "inputs": [],
      "name": "quoteToken",
      "outputs": [
        {
          "internalType": "address",
          "name": "",
          "type": "address"
        }
      ],
      "stateMutability": "view",
      "type": "function"
    },
    {
      "inputs": [
        {
          "internalType": "address",
          "name": "",
          "type": "address"
        },
        {
          "internalType": "address",
          "name": "",
          "type": "address"
        }
      ],
      "name": "shares",
      "outputs": [
        {
          "internalType": "uint256",
          "name": "",
          "type": "uint256"
        }
      ],
      "stateMutability": "view",
      "type": "function"
    },
    {
      "inputs": [],
      "name": "swapRouter",
      "outputs": [
        {
          "internalType": "contract ISwapRouter",
          "name": "",
          "type": "address"
        }
      ],
      "stateMutability": "view",
      "type": "function"
    },
    {
      "inputs": [
        {
          "internalType": "uint256",
          "name": "",
          "type": "uint256"
        }
      ],
      "name": "tokens",
      "outputs": [
        {
          "internalType": "address",
          "name": "addr",
          "type": "address"
        },
        {
          "internalType": "uint256",
          "name": "percentage",
          "type": "uint256"
        }
      ],
      "stateMutability": "view",
      "type": "function"
    }
  ],
  "bytecode": {
    "object": "0x60c06040523480156200001157600080fd5b506040516200139a3803806200139a8339810160408190526200003491620006aa565b60005b8551811015620000ef57846001600160a01b0316868281518110620000605762000060620007cf565b6020026020010151600001516001600160a01b031614620000dc576000868281518110620000925762000092620007cf565b602090810291909101810151825460018082018555600094855293839020825160029092020180546001600160a01b0319166001600160a01b039092169190911781559101519101555b620000e781620007fb565b905062000037565b506001600160a01b03808516608052811660a0528215620001165762000116838362000121565b5050505050620008e6565b600060805190506200014181333086620003eb60201b620004ae1760201c565b600060a051905062000160828286620004fb60201b620006241760201c565b600080805480602002602001604051908101604052809291908181526020016000905b82821015620001cd576000848152602090819020604080518082019091526002850290910180546001600160a01b0316825260019081015482840152908352909201910162000183565b50505050905060005b8151811015620003e3576000828281518110620001f757620001f7620007cf565b6020026020010151602001516127108862000213919062000817565b6200021f91906200083a565b90506000604051806101000160405280876001600160a01b03168152602001858581518110620002535762000253620007cf565b602090810291909101810151516001600160a01b03908116835262ffffff808c1684840152306040808601919091524260608087019190915260808087018a9052600060a080890182905260c0988901829052845163414bf38960e01b81528a5188166004820152978a0151871660248901529389015190941660448701529087015184166064860152860151608485015285015160a48401529284015160c483015260e0840151811660e4830152929350909187169063414bf38990610104016020604051808303816000875af115801562000334573d6000803e3d6000fd5b505050506040513d601f19601f820116820180604052508101906200035a91906200085a565b33600090815260016020526040812087519293508392909190889088908110620003885762000388620007cf565b6020026020010151600001516001600160a01b03166001600160a01b031681526020019081526020016000206000828254620003c5919062000874565b9250508190555050505080620003db90620007fb565b9050620001d6565b505050505050565b604080516001600160a01b0385811660248301528481166044830152606480830185905283518084039091018152608490920183526020820180516001600160e01b03166323b872dd60e01b17905291516000928392908816916200045191906200088a565b6000604051808303816000865af19150503d806000811462000490576040519150601f19603f3d011682016040523d82523d6000602084013e62000495565b606091505b5091509150818015620004c3575080511580620004c3575080806020019051810190620004c39190620008bb565b620003e35760405162461bcd60e51b815260206004820152600360248201526229aa2360e91b60448201526064015b60405180910390fd5b604080516001600160a01b038481166024830152604480830185905283518084039091018152606490920183526020820180516001600160e01b031663095ea7b360e01b17905291516000928392908716916200055991906200088a565b6000604051808303816000865af19150503d806000811462000598576040519150601f19603f3d011682016040523d82523d6000602084013e6200059d565b606091505b5091509150818015620005cb575080511580620005cb575080806020019051810190620005cb9190620008bb565b620005fe5760405162461bcd60e51b8152602060048201526002602482015261534160f01b6044820152606401620004f2565b5050505050565b634e487b7160e01b600052604160045260246000fd5b604080519081016001600160401b038111828210171562000640576200064062000605565b60405290565b604051601f8201601f191681016001600160401b038111828210171562000671576200067162000605565b604052919050565b80516001600160a01b03811681146200069157600080fd5b919050565b805162ffffff811681146200069157600080fd5b600080600080600060a08688031215620006c357600080fd5b85516001600160401b0380821115620006db57600080fd5b818801915088601f830112620006f057600080fd5b815160208282111562000707576200070762000605565b62000717818360051b0162000646565b828152818101935060069290921b84018101918b8311156200073857600080fd5b938101935b8285101562000789576040858d031215620007585760008081fd5b620007626200061b565b6200076d8662000679565b815285830151838201528452604090940193928101926200073d565b9850620007988a820162000679565b97505050505060408601519250620007b36060870162000696565b9150620007c36080870162000679565b90509295509295909350565b634e487b7160e01b600052603260045260246000fd5b634e487b7160e01b600052601160045260246000fd5b600060018201620008105762000810620007e5565b5060010190565b6000826200083557634e487b7160e01b600052601260045260246000fd5b500490565b8082028115828204841417620008545762000854620007e5565b92915050565b6000602082840312156200086d57600080fd5b5051919050565b80820180821115620008545762000854620007e5565b6000825160005b81811015620008ad576020818601810151858301520162000891565b506000920191825250919050565b600060208284031215620008ce57600080fd5b81518015158114620008df57600080fd5b9392505050565b60805160a051610a81620009196000396000818161014f01526101e5015260008181607101526101b80152610a816000f3fe608060405234801561001057600080fd5b50600436106100675760003560e01c80637df44647116100505780637df44647146100fc578063ad60c6e314610135578063c31c9c071461014a57600080fd5b8063217a4b701461006c5780634f64b2be146100bd575b600080fd5b6100937f000000000000000000000000000000000000000000000000000000000000000081565b60405173ffffffffffffffffffffffffffffffffffffffff90911681526020015b60405180910390f35b6100d06100cb366004610794565b610171565b6040805173ffffffffffffffffffffffffffffffffffffffff90931683526020830191909152016100b4565b61012761010a3660046107d6565b600160209081526000928352604080842090915290825290205481565b6040519081526020016100b4565b610148610143366004610809565b6101b6565b005b6100937f000000000000000000000000000000000000000000000000000000000000000081565b6000818154811061018157600080fd5b60009182526020909120600290910201805460019091015473ffffffffffffffffffffffffffffffffffffffff909116915082565b7f00000000000000000000000000000000000000000000000000000000000000006101e3813330866104ae565b7f000000000000000000000000000000000000000000000000000000000000000061020f828286610624565b600080805480602002602001604051908101604052809291908181526020016000905b828210156102875760008481526020908190206040805180820190915260028502909101805473ffffffffffffffffffffffffffffffffffffffff168252600190810154828401529083529092019101610232565b50505050905060005b81518110156104a65760008282815181106102ad576102ad610841565b602002602001015160200151612710886102c7919061089f565b6102d191906108da565b905060006040518061010001604052808773ffffffffffffffffffffffffffffffffffffffff16815260200185858151811061030f5761030f610841565b60200260200101516000015173ffffffffffffffffffffffffffffffffffffffff1681526020018862ffffff1681526020013073ffffffffffffffffffffffffffffffffffffffff16815260200142815260200183815260200160008152602001600073ffffffffffffffffffffffffffffffffffffffff16815250905060008573ffffffffffffffffffffffffffffffffffffffff1663414bf389836040518263ffffffff1660e01b81526004016103c891906108f7565b6020604051808303816000875af11580156103e7573d6000803e3d6000fd5b505050506040513d601f19601f8201168201806040525081019061040b919061098f565b3360009081526001602052604081208751929350839290919088908890811061043657610436610841565b60200260200101516000015173ffffffffffffffffffffffffffffffffffffffff1673ffffffffffffffffffffffffffffffffffffffff168152602001908152602001600020600082825461048b91906109a8565b925050819055505050508061049f906109bb565b9050610290565b505050505050565b6040805173ffffffffffffffffffffffffffffffffffffffff85811660248301528481166044830152606480830185905283518084039091018152608490920183526020820180517bffffffffffffffffffffffffffffffffffffffffffffffffffffffff167f23b872dd00000000000000000000000000000000000000000000000000000000179052915160009283929088169161054d91906109f3565b6000604051808303816000865af19150503d806000811461058a576040519150601f19603f3d011682016040523d82523d6000602084013e61058f565b606091505b50915091508180156105b95750805115806105b95750808060200190518101906105b99190610a22565b6104a6576040517f08c379a000000000000000000000000000000000000000000000000000000000815260206004820152600360248201527f535446000000000000000000000000000000000000000000000000000000000060448201526064015b60405180910390fd5b6040805173ffffffffffffffffffffffffffffffffffffffff8481166024830152604480830185905283518084039091018152606490920183526020820180517bffffffffffffffffffffffffffffffffffffffffffffffffffffffff167f095ea7b30000000000000000000000000000000000000000000000000000000017905291516000928392908716916106bb91906109f3565b6000604051808303816000865af19150503d80600081146106f8576040519150601f19603f3d011682016040523d82523d6000602084013e6106fd565b606091505b50915091508180156107275750805115806107275750808060200190518101906107279190610a22565b61078d576040517f08c379a000000000000000000000000000000000000000000000000000000000815260206004820152600260248201527f5341000000000000000000000000000000000000000000000000000000000000604482015260640161061b565b5050505050565b6000602082840312156107a657600080fd5b5035919050565b803573ffffffffffffffffffffffffffffffffffffffff811681146107d157600080fd5b919050565b600080604083850312156107e957600080fd5b6107f2836107ad565b9150610800602084016107ad565b90509250929050565b6000806040838503121561081c57600080fd5b82359150602083013562ffffff8116811461083657600080fd5b809150509250929050565b7f4e487b7100000000000000000000000000000000000000000000000000000000600052603260045260246000fd5b7f4e487b7100000000000000000000000000000000000000000000000000000000600052601160045260246000fd5b6000826108d5577f4e487b7100000000000000000000000000000000000000000000000000000000600052601260045260246000fd5b500490565b80820281158282048414176108f1576108f1610870565b92915050565b60006101008201905073ffffffffffffffffffffffffffffffffffffffff80845116835280602085015116602084015262ffffff6040850151166040840152806060850151166060840152506080830151608083015260a083015160a083015260c083015160c083015260e083015161098860e084018273ffffffffffffffffffffffffffffffffffffffff169052565b5092915050565b6000602082840312156109a157600080fd5b5051919050565b808201808211156108f1576108f1610870565b60007fffffffffffffffffffffffffffffffffffffffffffffffffffffffffffffffff82036109ec576109ec610870565b5060010190565b6000825160005b81811015610a1457602081860181015185830152016109fa565b506000920191825250919050565b600060208284031215610a3457600080fd5b81518015158114610a4457600080fd5b939250505056fea264697066735822122003d3e181872221dc3aa64fd7414e9686f9e92b6667686bd7d57b442de9ff0a3164736f6c63430008110033",
    "linkReferences": {}
  },
  "methodIdentifiers": {
    "buyTokens(uint256,uint24)": "ad60c6e3",
    "quoteToken()": "217a4b70",
    "shares(address,address)": "7df44647",
    "swapRouter()": "c31c9c07",
    "tokens(uint256)": "4f64b2be"
  },
  "id": 0
}